:0300000002009467
:0C009400787FE4F6D8FD7581290200DBBE
:100266000A0A000000000000000000000A14000056
:0E027600000000000000000001090001080067
:100285008F218E208D1F8C1E781E74FF120182EC2B
:060295004D4E4F70F322F4
:080003007FE87E037D007C0014
:08000B008F218E208D1F8C1E39
:10001300E4F525F524F523F522F529F528F527F54B
:100023002675256EF524F523F522E4FFFEFDFCABD2
:1000330025AA24A923A822D312016F40538521297D
:10004300852028851F27851E26E4FFFEFDFCAB299E
:10005300AA28A927A826D312016F401AE52924FF4D
:10006300F529E52834FFF528E52734FFF527E526AC
:1000730034FFF52680D3E52524FFF525E52434FF59
:10008300F524E52334FFF523E52234FFF522809A96
:01009300224A
:10029B00758920759850E4F587758DFD758BFDD2AA
:0602AB008ED29CD2AC22B1
:0802B1008F993099FDC29922DA
:02024700AE0700
:10024900E4FD7F7E1202B1EDC39E500C740A2DF8B5
:0D025900E6FF1202B10D80EF7FEF0202B14F
:0601A0008B1E8A1F89205E
:1001A600E4F521F522FCECC39D501AAB1EAA1FA94B
:1001B600208C827583001201202522F522E4352148
:1001C600F5210C80E1C3E49522F522E49521F52181
:1001D600AB1EAA1FA9208C8275830012014DEC7CF0
:0E01E6000029F9EC3AFA900001E52202014DE1
:060223007A00E4FD7F03F8
:10022900750AFF750B068F0C8D0D8A0E8B0F7B00DF
:0E0239007A00790A7D061201A07F08020247B2
:1001F4007F017E007D007C001202857F017E00125B
:10020400000712029B1200037B0112022312000357
:0F0214007B021202231200037B0412022380FEDE
:1000A0000201F4E493A3F8E493A34003F68001F281
:1000B00008DFF48029E493A3F85407240CC8C33361
:1000C000C4540F4420C8834004F456800146F6DF30
:1000D000E4800B0102040810204080900266E47E58
:1000E000019360BCA3FF543F30E509541FFEE49325
:1000F000A360010ECF54C025E060A840B8E493A3EC
:10010000FAE493A3F8E493A3C8C582C8CAC583CA16
:10011000F0A3C8C582C8CAC583CADFE9DEE780BECE
:010284000079
:10012000BB010CE58229F582E5833AF583E0225094
:1001300006E92582F8E622BBFE06E92582F8E222DE
:0D014000E58229F582E5833AF583E49322F8
:10014D00F8BB010DE58229F582E5833AF583E8F0E8
:10015D00225006E92582C8F622BBFE05E92582C894
:02016D00F2227C
:10016F00EB9FF5F0EA9E42F0E99D42F0E89C45F0E6
:01017F00225D
:100180007401FF3395E0FEFDFC080808E6CF2FF66A
:1001900018E6CE3EF618E6CD3DF618E6CC3CF62243
:00000001FF
