:0300000002079B59
:0C079B00787FE4F6D8FD7581200207E2AB
:0D001600E4F5C7F5C5F5C675C380F5C42235
:100C670075C78375C5018FC4EEF5C375C65A75C6BA
:070C7700A500AFC212001638
:010C7E002253
:100C350075C78375C5028FC4EEF5C3AF058FC27541
:090C4500C65A75C6A5000200168E
:100CAC0075C78375C5038FC4EEF5C375C65A75C673
:050CBC00A50002001676
:100325004101300141012C0041012D004101310005
:0C03350041012E004101320041012F0067
:100AE100438E805389F0438901758A18758C23C21E
:100AF1008DC28CD2A9D2AFE4900133F0A3F0900162
:100B010028F0A3F0900135F0A3F090012AF0A3F0B2
:010B110022C1
:03000B00020541AA
:10054100C0E0C083C082C0D0758A18758C23900129
:1005510034E004F07006900133E004F0C3900134FC
:10056100E09464900133E09400402BE4F0A3F09018
:100571000129E004F07006900128E004F0C3900125
:1005810029E0940A900128E09400400AE4F0A3F0E5
:1005910090012DE004F090012DE0C394024007E4A6
:1005A100F090013104F0900130E0605F900136E09D
:1005B10004F07006900135E004F0C3900136E09438
:1005C10064900135E094004042E4F0A3F090012BE7
:1005D100E004F0700690012AE004F0C390012BE0E2
:1005E100940A90012AE094004021E4F0A3F09001E4
:1005F1002EE004F0E094024012900132E004F0E0B9
:1006010094034007E4F090012C04F0D0D0D082D0C4
:0406110083D0E03280
:100CC100900131E0C394014007C28CE4F07F01221E
:030CD1007F00227F
:100B660090012CE0C39401401DE4F0900135F0A300
:100B7600F090012AF0A3F090012EF0900132F0904F
:090B86000130F07F01227F002202
:100C9600E4900133F0A3F0900128F0A3F090012D29
:060CA600F0900131F02284
:02034100C103F6
:100C1A0053890F438920759850E4F587758BFD75C4
:0B0C2A008DFDD28EC29CD2ACD2AF2256
:03002300020D03C8
:0D0D0300309802C298309904C299C20332A0
:090D1D002003FDEFD203F5992239
:04034300410118005C
:0B08270090013CEBF0A3EAF0A3E9F025
:10083200E4A3F0A3F0FCECC39D502490013CE0FB48
:10084200A3E0FAA3E0F98C827583001206D8FF9028
:100852000140E02FF090013FE03400F00C80D7908F
:10086200013FE0FEA3E0FFC3E49FFFE49E90013F4F
:10087200F0A3EFF090013FE0FF90013CE0FBA3E02A
:10088200FAA3E0F98C82758300EF12070590013F0D
:10089200A3E0FFEC7C0029F9EC3AFA900001EF02A8
:0208A200070548
:050A3B0090013CEFF00A
:100A4000E4A3F07F7E120D1DE490013DF090013C87
:100A5000E0FFA3E0FEC39F5017741E2EF582E4341E
:100A600001F583E0FF120D1D90013DE004F080DDF3
:050A70007FEF020D1DE7
:100BB70090011E74FFF0A37406F0A3EFF0E4A3F016
:100BC700ECA3F0A3EDF07B017A01791E7D061208F4
:060BD700277F08020A3B23
:100B8F00E4FF30B412900118E0C3940A5005E0045A
:100B9F00F080147F018010900118E0D3940040057D
:070BAF00E014F08002E4FFF6
:010BB600221C
:1009C100AD07AC06900119740FF0602C90011DE089
:1009D10064016024900119E0FF120BB77FC87E000B
:1009E1007D007C00800B120B8FEF700A7F02FEFDF1
:0E09F100FC12090E80F0B2B6E4900119F0225B
:100347004100010041008100410005004100040017
:10035700410087004100EC00410088004100820015
:1003670041000600410002004100DA00410043005D
:100377004100860041000000410003004100DB000E
:100387004100EB004100DC004100D901410044007D
:10039700410083004100DD00410084004100DE0090
:1003A7004100850060500089000000000000000047
:1003B7000000000000000000000000000000000036
:1003C7000000000000000000000000000000000026
:1003D7000000000000000000000000000000000016
:1003E7000000000000000000000000000000000006
:1003F7000000000000000000603C00070000000053
:1004070000000000000000000000000000000000E5
:1004170000000000000000000000000000000000D5
:1004270000000000000000000000000000000000C5
:100437000000000000000000603C004500000000D4
:1004470000000000000000000000000000000000A5
:100457000000000000000000000000000000000095
:100467000000000000000000000000000000000085
:1004770000000000000000004C00DF1B231C3A7244
:0D04870045163645161636C100C181C1026A
:100C4E00900003E06012E4F0900002E0FF120D1D30
:090C5E00900002E0FF12002622C2
:0300130002096976
:10096900C0E0C083C082C0D075D000C0079000DB52
:10097900E0FFD394004013EF9409500E900000E07B
:10098900C313F030A004E04480F09000DBE004F0F1
:10099900E0D3940A4017E4F0B2B6900000E0FF906B
:1009A90000DAF0BFF005E0900043F0D200D007D0A4
:0809B900D0D082D083D0E032DF
:100CD400E4900000F09000DAF0900043F0C20022AB
:1009FF00300024200112900043E0B4F01AE4F0D24A
:100A0F000290000304F0800FC2009000DAE0900023
:100A1F0002F0120615C2013002117F0A7E007D001E
:0C0A2F007C0012090EC202D201C200229B
:100615009000DAE012077506BF1506BF1606BF1A69
:1006250006BF1B06BF1C06BF1D06BF1E06BF210653
:10063500BF2206BF2306BF2406BF2506BF2606BF69
:100645002906BF2A06BF2B06BF2C06BF2D06BF2EC7
:1006550006BF3106BF3206BF3306BF3406BF3506B7
:10066500BF3606BF3A06BF3B06BF3C06BF3D06BFC9
:100675003E06BF4206BF4306BF4406BF4506BF460A
:1006850006BF4B06BF4D06CA5A06CF6606BF6906AA
:10069500BF6B06BF6C06BF7006BF7106BF7206BF93
:1006A5007306BF7406BF7506BF7906BF7A06BF7BA2
:1006B50006BF7C06BF7D000006D79000817401F05F
:1006C500120CE48008120B128003120B3CE490001C
:0306D500DAF02236
:05002600900137EFF02E
:10002B00C28C645A6003020266C28C9000ECE070D2
:10003B00030201879000EBE0C3943C50030200EEF7
:10004B00E4FFFE120CAC900138E4F0A3743CF0908A
:10005B0000EBE0FF900138E0FCA3E0FDC39FEC94C4
:10006B0000501C74892DF582E43400F583E4F09084
:10007B000139E004F070D8900138E004F080D090A2
:10008B0000EB743CF0E4900138F0A3F09000EBE04F
:10009B00FF900138E0FCA3E0FDC39FEC940040030C
:1000AB00020168AF0574892FF582E43400F583E013
:1000BB00FE74072FF582E43400F583EEF0ED240196
:1000CB00FFE43CFE74072DF582E43400F583E0FD7C
:1000DB00120C35900139E004F070B1900138E00456
:1000EB00F080A99000EBE07013FFFE120C679000FC
:1000FB00EBEFF0C3943C4065E4F08061E4FFFE124B
:10010B000CACE4900138F0A3F09000EBE0FF900111
:10011B0038E0FCA3E0FDC39FEC94005040AF0574A6
:10012B00892FF582E43400F583E0FE74072FF58206
:10013B00E43400F583EEF0ED2401FFE43CFE74079C
:10014B002DF582E43400F583E0FD120C3590013976
:10015B00E004F070B4900138E004F080ACE490015E
:10016B0038F0A3F09000EBE0900088F0FDE4FFFE88
:10017B00120C359000057401F0020257E4FFFE12D9
:10018B000C6790013AE4F0A3EFF0E4900138F0A390
:10019B00F090013AE0FEA3E0FF900138E0FCA3E011
:1001AB00FDC39FEC9E502AED2401FFE43CFE120C94
:1001BB0067900138A3E02445F582E43400F583EF22
:1001CB00F0900139E004F070C8900138E004F08041
:1001DB00C090013F7401F0A37400F0A37445F0903C
:1001EB00013AA3E09001421208A4900082EFF09034
:1001FB00013F7401F0A37400F0A374DFF0A3740C3F
:10020B001208A4900006EFF0900082E06017B2B5E0
:10021B0090011BE06403F090011AE0FEA3E0FF12D3
:10022B0009C1120CD4120CF4900004E0701ED28C95
:10023B00900006E06009E4F090008704F08005E48C
:10024B00900001F0120C967F3C120C7F9000EBE0BB
:10025B00FF120C7FE4900086F08020900137E0FFC6
:10026B0064666004EFB471189000EBE0FF120C7F32
:10027B00D28CE4900086F0120C96E49000EBF02206
:10028B00900081E07003020324900137E0B4700307
:10029B007445F0900137E0B469037416F0900137A0
:1002AB00E0B47203741EF0900137E0B47A03742645
:1002BB00F0900137E0B46B037425F0900137E0B494
:1002CB007303742EF0900137E0B474037436F0901E
:1002DB000137E0B46C03743DF0900137E0B4750363
:1002EB00743EF0900137E0B47D037446F090013713
:1002FB00E0FF9000EBE0FD120D109000EBE004F03E
:10030B00E0C3944640037446F0120C96D28C9000D6
:09031B00867401F0E4900081F009
:0103240022B6
:100BDD00900002E0601A900086E06014120CC1EFE4
:100BED00600E7F3C120C7FE4900086F09000EBF0DD
:010BFD0022D5
:0F0CF400900004E07008120B66900004EFF022ED
:100A7500900087E06033E4F07402FFFE1209C112B2
:100A85000CD4900005E0700D9000EC04F0120C4EB3
:100A95001209FF80EDE49000ECF07F037E0212095D
:0A0AA500C1120CD47F3C120C7F221A
:0708A400F07B017A00798965
:0B08AB0090013CEBF0A3EAF0A3E9F0A1
:1008B600E4FFFE900142E0FDEFC39D504890013FEA
:1008C600E0FBA3E0FAA3E0F98E827583001206D856
:1008D600FD90013CE0FBA3E0FAA3E0F98E8275836C
:1008E600001206D86D70180E900142E0FDEEC39D11
:1008F60040108E827583001206D87006FF0F22E420
:07090600FF220F80AEE4FFA9
:01090D0022C7
:100C7F00E4FEEEC39F500F74892EF582E43400F525
:060C8F0083E4F00E80EC8E
:010C9500223C
:0D0D100074892DF582E43400F583EFF022A4
:100494004101070041010E0041010B0041010A0026
:1004A40041011100410117004101120041010F00F7
:1004B40041010C00410108004101130041010D00FC
:1004C40041011000410106004101090041011400ED
:0804D400410116004101150071
:100CE400D2C07F647E007D007C0012090EC2C02247
:100B1200D2C07F647E007D007C0012090EC2C07FBD
:100B2200327E007D007C0012090ED2C07F647E00FE
:0A0B32007D007C0012090EC2C022F3
:100B3C00D2C07F647E007D007C0012090EC2C07F93
:100B4C00327E007D007C0012090ED2C07F647E00D4
:0A0B5C007D007C0012090EC2C022C9
:06090E0090013C120738C5
:100914009001401207440000000090013CE0FCA359
:10092400E0FDA3E0FEA3E0FFA3E0F8A3E0F9A3E069
:10093400FAA3E0FBC3120727502A007F0B7EBEDE1A
:10094400FEDFFC900140E0FCA3E0FDA3E0FEA3E099
:100954002401FFE43EFEE43DFDE43CFC9001401232
:04096400073880B61A
:01096800226C
:1004DC004100EE004100F6004100F2004100F10045
:1004EC004100FC00410105004100FD004100F70006
:1004FC004100F3004100EF004100FF004100F40017
:10050C004100FB004100ED004100F0004101000002
:10051C0041010400410101004100FE014100F500D0
:10052C004100F800410102004100F90041010300C3
:04053C004100FA0080
:100BFE0043B40153B3FEC2B6C2C07FDC7E057D0096
:0C0C0E007C0012090ED2B6D2B5D2A02292
:100AAF00120BFE120C1AD28AD2AAD2AF7F017E028B
:100ABF001209C1120CD4120AE1D28C90011A7401DE
:100ACF00F0A304F0120A75120C4E1209FF120BDD7F
:020ADF0080F2A3
:1007A700020AAFE493A3F8E493A34003F68001F2AF
:1007B70008DFF48029E493A3F85407240CC8C33353
:1007C700C4540F4420C8834004F456800146F6DF22
:1007D700E4800B0102040810204080900325E47E8A
:1007E700019360BCA3FF543F30E509541FFEE49317
:1007F700A360010ECF54C025E060A840B8E493A3DE
:10080700FAE493A3F8E493A3C8C582C8CAC583CA08
:10081700F0A3C8C582C8CAC583CADFE9DEE780BEC0
:0105400000BA
:1006D800BB010CE58229F582E5833AF583E02250D7
:1006E80006E92582F8E622BBFE06E92582F8E22221
:0D06F800E58229F582E5833AF583E493223B
:10070500F8BB010DE58229F582E5833AF583E8F02A
:10071500225006E92582C8F622BBFE05E92582C8D6
:02072500F222BE
:10072700EB9FF5F0EA9E42F0E99D42F0E89C45F028
:01073700229F
:0C073800ECF0A3EDF0A3EEF0A3EFF02234
:10074400A8828583F0D083D08212075B12075B12E4
:10075400075B12075BE473E493A3C583C5F0C58309
:10076400C8C582C8F0A3C583C5F0C583C8C582C8FF
:010774002262
:10077500D083D082F8E4937012740193700DA3A313
:1007850093F8740193F5828883E473740293686027
:06079500EFA3A3A380DF27
:00000001FF
