:03000000020ED419
:0C0ED400787FE4F6D8FD758177020F1BD3
:10067700554449534B20494E00544620494E00509B
:100687004320494E00554449534B204F555400547D
:1006970046204F5554005043204F55540045525261
:1006A7004F5220434D4400515545525920544F5401
:1006B700414C204E554D20004D4F4420494E20536C
:1006C7004C45455020200057414954205245545528
:1006D700524E202E2E2E2E004445564943453A2091
:1006E700202020202020202000544F54414C204E11
:1006F700554D3A20202020202000554449534B00D7
:10070700544600464C4153480051554552592043E1
:100717005552204E554D202020004D4F4420494E24
:1007270020534C454550200043555220554D3A2003
:100737002020202020202020202020005155455215
:10074700592043555220564F4C20202000564F4CDD
:100757003A20202020202020202020202000515532
:100767004552592043555220455120202020005101
:100777005545525920504C4159204D4F4445200072
:100787004D4F4420494E20534C45455020202000D2
:1007970052454356204D4F444C204F4B202020209C
:1007A700004F4E4C494E45204445563A20202020C4
:1007B7002000504C41592044455649434520534554
:1007C7005400455120534554004D555349435F50FC
:1007D7004C4159004D555349435F504155534500CE
:1007E7004E4558542046494C4520504C41590050DD
:1007F7005245562046494C4520504C415900414CE2
:100807004C20504C4159204F4E20202000414C4C49
:1008170020504C4159204F46460043555220564FD1
:100827004C5B20205D0053454E44204F4E45204EE3
:10083700554D200053454E44204C4F4F50204E55A8
:100847004D2000464F4C442046494C4520504F49C7
:100857004E5400504F494E54204F4E4520202020E3
:10086700202000504F494E54204C4F4F50202020FD
:10087700202000504F494E5420464F4C44455220AB
:100887002020004E4F204E4545442041434B004E0B
:100897004545442041434B0052455455524E20454F
:1008A70052524F52202020200042555359202020D9
:1008B7002000534C454550202020200052454356E8
:1008C700204552524F522020200053554D2045526B
:1008D700524F522020202000464F4C204F56455261
:1008E7002020202020004E4F2046494E44204649D4
:1008F7004C452000494E505554204E554D3A5B000B
:100907005D00464F4C44204E554D5B20205D004610
:10091700494C45204E554D5B2020205D00EDDDBD47
:100927007DEBDBBB7BE7D7B7770001020304053D0F
:100937003C131411121C1617FF202A2C2E303237A5
:1009470036FFFFFFFFFFFFFFFFFFFFFFFFFFFFFF79
:09095700FFFFFFFFFFFFFFFFFFA0
:100E3A00014DFF014B00012E00013B000131000171
:100E4A003A00014F00015000014E050154000145CE
:100E5A0000015100012B00013500014C00013D0049
:100E6A00012D000148000142000132000243000046
:100E7A00024900000238000002520000023E00004F
:100E8A00022F000002400000023300000123FF018C
:050E9A0026FF01290004
:03001F008F4D22E0
:10000E00854D21E54DF46006754DFFAF21227FFF32
:01001E0022BF
:1018BC00EF75F00CA42430F582E43409F583E5824D
:0E18CC002DF582E43583F583E493FF02001FBF
:1017700075900FE590540FFF640F60227590F0E5AF
:10178000904FF522E4FF900924EFC3940D500CE430
:1017900093B522038F22220FA380EE7FFF227FFFCB
:0117A0002226
:10192B00E5246F6007E4F5258F2480090525E5255F
:07193B00B404028F23AF2367
:011942002282
:10156C0012177012192BAD26EFB5261BF46033053C
:10157C0027E527B44B047E018023E527645A7022AB
:10158C007E0275274B80168F26E527C3944B500996
:10159C00BFFF06E4F527FE8004E4F52722AF061210
:0215AC0018BC69
:0115AE00221A
:1000260012000E8F28E528120BAB0669000669013F
:100036000669020669030669040669050669060675
:100046006907066908066909058D0F053D11054111
:100056001204921304B214045C16047B17042F1CBA
:10006600040020016C2600C62803D42901832A0136
:10007600D72B023B2C02952D02FB2E03242F034780
:1000860030038131038A3203C63301703400BE3532
:1000960006413605883B05FF3C04D13D05223E0559
:1000A600303F00CC4000E741010242011D430136CA
:1000B60044014F4500000676AF311212E70206658D
:1000C6001217CD02121D7F011219EB7BFF7A0679FA
:1000D60077E4FD7F011215F2754C01433D010206DE
:1000E600657F011219EB7BFF7A067980E4FD7F01BB
:1000F6001215F2754C02433D020206657F01121984
:10010600EB7BFF7A067986E4FD7F011215F2754CCA
:1001160003433D040206657F011219EB7BFF7A0655
:10012600798CE4FD7F011215F2533DFEE4FF803029
:100136007F011219EB7BFF7A067996E4FD7F0112A7
:1001460015F2533DFD7F0180177F011219EB7BFFEE
:100156007A06799DE4FD7F011215F2533DFB7F027D
:10016600121669020665752D06221219DB7BFF7AC7
:100176000679A4E4FD7F011215F20206651219DB69
:100186007BFF7A0679AEE4FDFF1215F2E54CB40565
:100196000C1219DB7BFF7A0679BF02028BE54CB4A1
:1001A6000109E4FBFAAD3A7F47801AE54CB402092F
:1001B600E4FBFAAD3A7F48800CE54CB4040AE4FB54
:1001C600FAAD3A7F491218737BFF7A0679CE02029E
:1001D6008BE4F5541219DB7BFF7A0679DFE4FDFF29
:1001E6001215F27BFF7A0679F0E4FD7F011215F213
:1001F600E54CB4010E854943854A447BFF7A07796D
:10020600018024E54CB4020E8538438539447BFFD2
:100216007A0779078011E54CB40413855243855358
:10022600447BFF7A07790A7D08E4FF1215F2AF4492
:10023600AE430202F61219DB7BFF7A077910E4FD62
:10024600FF1215F2E54CB4050B1219DB7BFF7A079A
:1002560079218031E54CB40109E4FBFAAD3A7F4BD4
:10026600801AE54CB40209E4FBFAAD3A7F4C800CE7
:10027600E54CB4040AE4FBFAAD3A7F4D1218737BE1
:10028600FF7A0679CEE4FD7F011215F20203C2E47D
:10029600F5541219DB7BFF7A0679DFE4FDFF1215B0
:1002A600F27BFF7A07792FE4FD7F011215F2E54C08
:1002B600B4010E852F3E85303F7BFF7A077901809A
:1002C60024E54CB4020E85403E85413F7BFF7A070C
:1002D60079078011E54CB4041385333E85343F7BA2
:1002E600FF7A07790A7D08E4FF1215F2AF3FAE3EAA
:1002F60012107080411219DB7BFF7A077943E4FD07
:10030600FF1215F27BFF7A0679CEE4FD7F01121506
:10031600F2E4FBFAAD3A7F431218730203C2E4F526
:10032600541219DB7BFF7A077954E4FD7F0112151D
:10033600F2AF4812189A7B007A0079587D0B0204B6
:10034600731219DB7BFF7A077965E4FDFF1215F25C
:10035600E54C7BFFB4050D7A077921E4FD7F011298
:1003660015F280157A0679CEE4FD7F011215F2E4C6
:10037600FBFAAD3A7F441218738041E4F554121922
:10038600DB0204541219DB7BFF7A077976E4FDFF62
:100396001215F2E54C7BFFB4050D7A077987E4FD6B
:1003A6007F011215F280157A0679CEE4FD7F0112DF
:1003B60015F2E4FBFAAD3A7F451218737554142210
:1003C600E4F5541219DBAF3512162C020665121924
:1003D600DB7BFF7A077997E4FDFF1215F27BFF7A44
:1003E6000779A8E4FD7F011215F2AF3D121445AF5F
:1003F6003D1217F8754F020206651219DB7BFF7A6C
:100406000779B9E4FDFF1215F2054CE54CB4060375
:10041600754C01AF4C1211B5AF4C121494E54CFB60
:100426007A00AD3A7F0902052A1219DB7BFF7A07AB
:1004360079C9E4FDFF1215F2052BE52BB40503E49B
:10044600F52BE52BFB7A00AD3A7F07121873AF2B1D
:10045600121344020665E4FBFAAD3A7F0D121873D7
:100466007F011219EB7BFF7A0779D0E4FD7F011239
:1004760015F2020665E4FBFAAD3A7F0E1218737F99
:10048600011219EB7BFF7A0779DB8035E548D394B7
:100496000040021548E4FBFAAD3A7F011218737F5B
:1004A600011219EB7BFF7A0779E78015E4FBFAADB9
:1004B6003A7F021218737F011219EB7BFF7A0779D4
:1004C600F6E4FD7F011215F2020665AF69EFC4136B
:1004D60013540320E0047F0180027F00EF5401C41F
:1004E600333354C0FFE56954BF4FF5697F011219D4
:1004F600EBAF69EFC4131354037BFF30E00F7A08A8
:100506007905E4FD7F011215F27F3E80777A08793E
:1005160014E4FD7F011215F27F3F80687B017A00AB
:10052600AD3A7F11121873020665E4FBFAAD3A7F05
:1005360011121873020665054805481548E548B4C2
:10054600FF05E4F548800AE548D3941E4003754844
:100556001EE548FB7A00AD3A7F061218737F01123A
:1005660019EB7BFF7A087921E4FD7F011215F275FC
:100576004514AF4812189A7B007A0079587D080214
:10058600063C7F0F02001F1219DBE54CB405087B01
:10059600FF7A0779218054E532B40113AB37AA36C6
:1005A600AD3A7F031218737BFF7A08792D803CE5FC
:1005B60032B40213AB37AA36AD3A7F081218737BF2
:1005C600FF7A08793B8024E53264037025E52EF531
:1005D60036E53BF537E4F53BF52EAB37AA36AD3AB3
:1005E6007F0F1218737BFF7A08794AE4FD7F0112A8
:1005F60015F2E4F536F53780660532E532B40403C4
:100606007532017545147F011219EBE532B4010A02
:100616007BFF7A08795AE4FD801CE532B4020A7B36
:10062600FF7A08796AE4FD800DE532640370417B48
:10063600FF7A08797AFD7F010215F27F011219EB24
:10064600E53A600BE4F53A7BFF7A08798A800A7509
:100656003A017BFF7A087996E4FD7F011215F2755F
:10066600451422E532AF28B40303020FE9121285BE
:010676002261
:1012E7008F6A1219DB7BFF7A08799FE4FDFF1215DD
:1012F700F2E56A24FE601814601D1460221460274A
:1013070014602C240570357BFF7A0879B080267B22
:10131700FF7A0879B9801E7BFF7A0879C380167B2C
:10132700FF7A0879D1800E7BFF7A0879DF80067B08
:0D133700FF7A0879EDE4FD7F011215F22226
:101285008F6AE54B70057F011219EB754B1EE4F56E
:10129500457BFF7A0879FBFD7F011215F27BFF7A0A
:1012A5000979077D0F7F011215F2AE36AF377C0045
:1012B5007D0A120B13EF256AF537EC3EF536D3E5BB
:1012C5003794CFE53694074005E4F536F537AF3763
:1012D500AE361210707B007A0079587D0B7F0102C3
:0212E50015F200
:020FE9008F6A0D
:100FEB00E54B701F7529051219DB7BFF7A0979090F
:100FFB00E4FDFF1215F27BFF7A097916E4FD7F0100
:10100B001215F2754B1EE4F545E529D394034025E3
:10101B00E52E75F00AA4256AF52EE53BD3946340C3
:10102B0003E4F53BAF2E12189A7B007A0079587DBA
:10103B0009E4FF8023E53B75F00AA4256AF53BD351
:10104B0094FF4003E4F53BAF3B7E0012139D7B0006
:10105B007A0079587D097F011215F2D52906E4F53E
:04106B0029754B0A8E
:01106F00225E
:1015AF00E54624FE601014601014600F14601E24B2
:1015BF0004702BC2B722D2B722800C052AE52AD39A
:1015CF009404401AE4F52AA2B7B392B722052AE58C
:0E15DF002AD394044006E4F52AC2B722D2B7FC
:0115ED0022DB
:1010E300E52D6008D52D057F1612001FE547600624
:1010F300D54703E4F53CE5516006D5510375460237
:10110300E54B6008D54B057F3B12001FE545601496
:10111300D54511E54FB401028005E54FB402057FC3
:101123002812001FE52C600DD52C0AE53A600675E0
:101133005106754603E5546010D5540DE54C700413
:0A114300754501227F3412001F22BF
:1016D8007F017E007D007C0012195B7F017E007D0A
:1016E800007C00120F6012170C12121DAF69EFC4B4
:1016F800540F30E00E1218DA12184C12182312196F
:041708009880E922BA
:100E9F000B5D303132333435363738390001550078
:060EAF000156000157008E
:10195B008F778E768D758C74787474FF120B8DEC7B
:06196B004D4E4F70F32207
:080F60008F6E8E6D8D6C8C6BA1
:100F6800E4F572F571F570F56FF576F575F574F5CC
:100F78007375726EF571F570F56FE4FFFEFDFCABED
:100F880072AA71A970A86FD3120B7A4053856E7636
:100F9800856D75856C74856B73E4FFFEFDFCAB761F
:100FA800AA75A974A873D3120B7A401AE57624FFA0
:100FB800F576E57534FFF575E57434FFF574E5737A
:100FC80034FFF57380D3E57224FFF572E57134FFC1
:100FD800F571E57034FFF570E56F34FFF56F809AB1
:010FE80022E6
:10198700EF75F00A84745D25F0F8E6F558E4F5592B
:01199700222D
:10189A00EF75F06484E5F075F00A84245DF8E6F5E6
:1018AA0058EF75F00A84745D25F0F8E6F559E4F509
:0218BA005A22B0
:10139D00AB07AA067C037DE8120B257E007F64CF88
:1013AD00CDCFCECCCE120B25745D2FF8E6F5587C43
:1013BD00007D64AF03AE02120B257E007F0ACFCDF8
:1013CD00CFCECCCE120B25745D2FF8E6F559AE02BB
:1013DD00AF037C007D0A120B25745D2DF8E6F55ADE
:0413ED00E4F55B22A6
:10107000AB07AA067C277D10120B257E037FE8CFE5
:10108000CDCFCECCCE120B25745D2FF8E6F5587C73
:10109000037DE8AF03AE02120B257E007F64CFCD47
:1010A000CFCECCCE120B25745D2FF8E6F5597C001F
:1010B0007D64AF03AE02120B257E007F0ACFCDCF39
:1010C000CECCCE120B25745D2FF8E6F55AAE02AFEA
:1010D000037C007D0A120B25745D2DF8E6F55BE4B8
:0310E000F55C229A
:1018DA00E56830E01754FEF5681200260555E5550F
:0C18EA00B40509E4F555E5684402F56812
:0118F60022CF
:10184C00AF68EFC31330E01EEF54FDF56812156C52
:10185C0012173E120D900556E556B40A09E4F556DA
:06186C00E5684404F56884
:011872002253
:10182300AF68EF1313543F30E01EEF54FBF56843EA
:10183300E1401215AF1210E30557E557B40509E46B
:08184300F557E5684408F5685B
:01184B00227A
:10199800AF68EF131313541F30E005EF54F7F568E1
:0119A800221C
:1019CB00438901D2AFD2A9D28C758CF8758AF822D3
:10197100758920759850E4F587758DFD758BFDD2BD
:061981008ED29CD2AC22C4
:10170C001219711219CB1217CDE4FF121987E4FFCD
:10171C0012189AE4FFFE12139DE4FFFE121070E5FE
:10172C00694408F56975320175481E754F02754597
:02173C001E226B
:1017CD00E56854FEF56854FDF56854FBF56854F76B
:1017DD00F56854EFF56854BFF568E5694410F5698F
:0B17ED00E4F545F551F5467546022273
:03000B000219A92E
:1019A900C0E0758CF8758AF8E5684401F568D0E0FF
:0119B90032FB
:1019BA00303132333435363738394142434445467B
:0119CA00001C
:100EB5000A0A000000000000000000000A140000FB
:0E0EC50000000000000000000109000108000C
:080003008F993099FDC299228A
:02152500AE070F
:10152700C201E4FDA2AC9201C2ACC2997F7E120057
:1015370003EDC39E500C740A2DF8E6FF1200030D4D
:1015470080EF7FEF120003A20192ACE56830000A3A
:101557004420F5688E098573502254DFF568E4F559
:0415670009754E01B3
:01156B00225D
:03002300020CD8F4
:0F0CD800C0E0C083C082C0D075D000C000C0078C
:100CE700209803020D83C298AF99E56930E0044468
:100CF70002F569E53CB40A004003020D83900D0B31
:100D0700F8282873020D29020D36020D3D020D4405
:100D1700020D4B020D52020D59020D60020D6702C2
:100D27000D6EBF7E0875470A753C01804F804A8F5C
:100D370014753C0280468F15753C03803F8F1675EE
:100D47003C0480388F17753C0580318F18753C0639
:100D5700802A8F19753C0780238F1A753C08801CE1
:100D67008F1B753C098015BFEF09754700E568447F
:0C0D7700108004E5684480F568753C00BD
:0D0D8300D007D000D0D0D082D083D0E03295
:10173E00AF69EF1313543F30E027AF68EFC4135473
:10174E000730E01D054EE54ED39402400A754E015A
:10175E00E56854DFF56822D200757319AF081215CB
:02176E00252232
:100D9000E4F56EF56FF570F571AF68EFC4131313DA
:100DA000540130E011EF547FF568E4F53C7B01FA23
:100DB000FD7F40021873AF68EFC4540F30E07AEF44
:100DC00054EFF568756B00756C00756D14E4F56A89
:100DD000AB6BAA6CA96D900001120AC4FFE56AC34F
:100DE0009F5016856A82758300120AC4256FF56FBD
:100DF000E4356EF56E056A80D77E00E9256AF9EE66
:100E00003AFA900001120AC4FDAB6BAA6CA96D8579
:100E10006A82758300120AC4F570EDF571256FF5CD
:100E20006FE570356EF56E456F70051209608006CE
:090E3000E5684480F568E4F53C36
:010E39002296
:10096000E4F572F573900004120AC4FF90000512BA
:100970000AC4F574EFF572E574F573900002120A7B
:10098000C4FF900003120AC4F575EF24C6B4140026
:100990004003020AAA9009A375F003A4C58325F0B9
:1009A000C583730209E9020A0B020A2C020A360205
:1009B0000A40020A4A020A510209DF020AAA020A8E
:1009C00058020A5F020A66020AAA020A6D020A7740
:1009D000020A81020AAA020A8B020A95020A9FE40D
:1009E000F52C75510675460122E574B401057F406A
:1009F000020AA7E574B402057F41020AA7E5746400
:100A0000046003020AAA7F42020AA7E574B4010542
:100A10007F43020AA7E574B402057F44020AA7E5F2
:100A20007464046003020AAA7F45807BE54C64017C
:100A300070787F278071E54C6402706E7F27806735
:100A4000E54C640470647F27805D85743D7F298058
:100A5000568574317F35804F8574487F2F80488557
:100A6000742B7F3180418574357F33803A8572499C
:100A700085734A7F2B80308572388573397F2B8050
:100A8000268572528573537F2B801C85722F857348
:100A9000307F2D80128572408573417F2D800885BF
:0A0AA00072338573347F2D12001F9E
:010AAA002229
:10187300750AFF750B068F0C8D0D8A0E8B0F7B007F
:101883007A00790A7D061213F1D20075731E7F0860
:07189300121525752C03223C
:0613F1008B728A738974FF
:1013F700E4F575F576FCECC39D501AAB72AA73A998
:10140700748C82758300120AC42576F576E43575E7
:10141700F5750C80E1C3E49576F576E49575F57579
:10142700AB72AA73A9748C82758300120AF1EC7CE3
:0E1437000029F9EC3AFA900001E576020AF17C
:100BD1002020202020202020202020202020202014
:100BE10000550054005000460053004E0041434B55
:100BF100004E41434B004F4E4520004C4F4F50009B
:100C0100464F4C4400504C4159443A554449534B8A
:100C110000504C4159443A54464341524400504CCF
:100C21004159443A504300504C4159443A464C4191
:100C3100534800504C4159443A534C45455000509B
:100C41004C41594D3A414C4C5F3000504C41594D4B
:100C51003A464F4C4445525F3100504C41594D3A50
:100C61004F4E455F3200504C41594D3A52414E442E
:100C71004F4D5F330045513A4E4F524D414C5F301D
:100C81000045513A504F505F310045513A524F4360
:100C91004B5F320045513A4A415A5A5F3300455140
:100CA1003A434C41535349435F340045513A424121
:100CB10053535F350051594D7846532D2D2D2D2D10
:100CC1002D2D2D2D2D00504C41593A202020202032
:070CD100202020202020005C
:10191200C2A6D2A5D2A77F057E007D007C00121947
:081922005BE5805480FFC2A7C1
:01192A00229A
:1016A1008F73121912EF70FAC2A6C2A5C2A77F05E5
:1016B1007E007D007C0012195B8573807F057E00B2
:1016C1007D007C0012195BD2A77F057E007D007C26
:0716D1000012195BC2A72201
:1017A1008F73121912EF70FAD2A6C2A5C2A7857360
:1017B100807F057E007D007C0012195BD2A77F052A
:0C17C1007E007D007C0012195BC2A72294
:0719F600EF4480FF0216A17F
:1019DB007F011216A17F017E007D007C00020F604B
:0B19EB007BFF7A0B79D1E4FD0215F2BE
:101943008D718B72EF6007E5714440FF8002AF71C8
:081953001219F6AF720217A190
:1018F7008D6A8B6BEF6007E56A4440FF8002AF6A31
:0B1907001219F6E56B2430FF0217A157
:0415EE007BFF7F01FF
:1015F2008F6C8D6D8B6E8A6F8970E56CD394015000
:1016020028E56D940F5022AB6EAA6FA970120AAB37
:10161200FB6016AD6DAF6C12194374012570F57045
:0A162200E4356FF56F056D80DE22E0
:1014DD00EF24FE601514601A14601F146024240498
:1014ED0070287BFF7A0B79E280267BFF7A0B79E4FB
:1014FD00801E7BFF7A0B79E680167BFF7A0B79E8ED
:10150D00800E7BFF7A0B79EA80067BFF7A0B79ECF4
:08151D007D09E4FF1215F22222
:10114D00AF4C1214DDE53A7BFF60087A0B79EE7D2A
:10115D000D80067A0B79F27D0CE4FF1215F2E53263
:10116D00B401087BFF7A0B79F78018E532B40208D9
:10117D007BFF7A0B79FC800BE532B4030D7BFF7A94
:10118D000C79017D057F011215F2AF69EFC413547F
:10119D00077BFF30E0067A0B79E880047A0B79EC57
:0811AD007D07E4FF1215F22298
:101494008F6AE56AB401087BFF7A0C79068032E52D
:1014A4006AB402087BFF7A0C79128025E56AB403DA
:1014B400087BFF7A0C791F8018E56AB404087BFF67
:1014C4007A0C7928800BE56AB4050D7BFF7A0C79D8
:0914D40034E4FD7F011215F2223F
:10162C008F6AE56A70087BFF7A0C79408028E56A3E
:10163C00B401097BFF7A0C794CE4801AE56AB40298
:10164C00097BFF7A0C795BE4800CE56AB4030D7BB3
:0D165C00FF7A0C7967E4FD7F011215F22280
:101344008F6AE56A70087BFF7A0C79768044E56AD7
:10135400B401097BFF7A0C7982E48036E56AB40231
:10136400097BFF7A0C798BE48028E56AB403097B56
:10137400FF7A0C7995E4801AE56AB404097BFF7A54
:101384000C799FE4800CE56AB4050D7BFF7A0C7937
:09139400ACE4FD7F011215F22208
:021445008F6AAC
:10144700E56A5401F56B60097A0B79E27D0C121598
:10145700EEE56A5402F56B60097A0B79E47D0D12AB
:1014670015EEE56A5404F56B600D7BFF7A0B79E6A0
:101477007D0E7F011215F2E56A5408F56B600D7B4E
:0C148700FF7A0B79E87D0F7F011215F24F
:011493002236
:1017F800EF7004754C0522EF54016004754C01220A
:10180800EF54026004754C0222EF54046004754CD6
:0A1818000322EF54086003754C042E
:0118220022A3
:10166900EF7010E53D30E104754C0222E53D30E3B1
:1016790023801DBF0112E53D30E004754C0122E5D0
:101689003D30E302800A800CBF020CE53D30E304E3
:08169900754C0422754C05227A
:1011B500AB07EB6401701FE53D5401FFEF7017E5C8
:1011C5003D30E105754C02800DE53D30E305754C7C
:1011D500048003754C05EB64027018E53D5402FF6D
:1011E500EF7034E53D30E004754C0122E53D30E318
:1011F500238010BB0313E53D5404FFEF7019E53D53
:1012050030E304754C0422800BBB040BE53D540808
:08121500FFEF7003754C052288
:10121D007F381216A17F017E007D007C00120F60C9
:10122D007F0C1216A17F017E007D007C00120F60E5
:10123D007F061216A17F017E007D007C00120F60DB
:10124D007F011216A17F017E007D007C00120F60D0
:10125D00E4FBFDFF1218F77BFF7A0C79B6E4FDFF76
:10126D001215F27BFF7A0C79C7E4FD7F011215F29E
:08127D0012114DAF3D021445B2
:100EE0000216D8E493A3F8E493A34003F68001F23A
:100EF00008DFF48029E493A3F85407240CC8C33313
:100F0000C4540F4420C8834004F456800146F6DFE1
:100F1000E4800B0102040810204080900E3AE47E29
:100F2000019360BCA3FF543F30E509541FFEE493D6
:100F3000A360010ECF54C025E060A840B8E493A39D
:100F4000FAE493A3F8E493A3C8C582C8CAC583CAC8
:100F5000F0A3C8C582C8CAC583CADFE9DEE780BE80
:010ED300001E
:100AAB00BB010689828A83E0225002E722BBFE0249
:090ABB00E32289828A83E493227C
:100AC400BB010CE58229F582E5833AF583E02250E7
:100AD40006E92582F8E622BBFE06E92582F8E22231
:0D0AE400E58229F582E5833AF583E493224B
:100AF100F8BB010DE58229F582E5833AF583E8F03B
:100B0100225006E92582C8F622BBFE05E92582C8E6
:020B1100F222CE
:100B1300EF8DF0A4A8F0CF8CF0A428CE8DF0A42EF6
:020B2300FE22B0
:100B2500BC000BBE0029EF8DF084FFADF022E4CCB4
:100B3500F875F008EF2FFFEE33FEEC33FCEE9DEC7D
:100B4500984005FCEE9DFE0FD5F0E9E4CEFD22EDC3
:100B5500F8F5F0EE8420D21CFEADF075F008EF2F0D
:100B6500FFED33FD4007985006D5F0F222C398FDFE
:050B75000FD5F0EA229B
:100B7A00EB9FF5F0EA9E42F0E99D42F0E89C45F0D1
:010B8A002248
:100B8B007401FF3395E0FEFDFC080808E6CF2FF655
:100B9B0018E6CE3EF618E6CD3DF618E6CC3CF6222E
:100BAB00D083D082F8E4937012740193700DA3A3D9
:100BBB0093F8740193F5828883E4737402936860ED
:060BCB00EFA3A3A380DFED
:00000001FF
